{
  "_format": "hh-sol-artifact-1",
  "contractName": "Token",
  "sourceName": "contracts/Token.sol",
  "abi": [
    {
      "inputs": [
        {
          "internalType": "string",
          "name": "tokenName",
          "type": "string"
        },
        {
          "internalType": "string",
          "name": "tokenSymbol",
          "type": "string"
        },
        {
          "internalType": "uint8",
          "name": "decimalsUnits",
          "type": "uint8"
        }
      ],
      "stateMutability": "nonpayable",
      "type": "constructor"
    },
    {
      "anonymous": false,
      "inputs": [
        {
          "indexed": true,
          "internalType": "address",
          "name": "_owner",
          "type": "address"
        },
        {
          "indexed": true,
          "internalType": "address",
          "name": "_spender",
          "type": "address"
        },
        {
          "indexed": false,
          "internalType": "uint256",
          "name": "_value",
          "type": "uint256"
        }
      ],
      "name": "Approval",
      "type": "event"
    },
    {
      "anonymous": false,
      "inputs": [
        {
          "indexed": true,
          "internalType": "address",
          "name": "from",
          "type": "address"
        },
        {
          "indexed": true,
          "internalType": "address",
          "name": "to",
          "type": "address"
        },
        {
          "indexed": false,
          "internalType": "uint256",
          "name": "value",
          "type": "uint256"
        }
      ],
      "name": "Transfer",
      "type": "event"
    },
    {
      "inputs": [
        {
          "internalType": "address",
          "name": "",
          "type": "address"
        },
        {
          "internalType": "address",
          "name": "",
          "type": "address"
        }
      ],
      "name": "allowance",
      "outputs": [
        {
          "internalType": "uint256",
          "name": "",
          "type": "uint256"
        }
      ],
      "stateMutability": "view",
      "type": "function"
    },
    {
      "inputs": [
        {
          "internalType": "address",
          "name": "_add1",
          "type": "address"
        },
        {
          "internalType": "address",
          "name": "_add2",
          "type": "address"
        }
      ],
      "name": "allowanceOf",
      "outputs": [
        {
          "internalType": "uint256",
          "name": "",
          "type": "uint256"
        }
      ],
      "stateMutability": "view",
      "type": "function"
    },
    {
      "inputs": [
        {
          "internalType": "address",
          "name": "_spender",
          "type": "address"
        },
        {
          "internalType": "uint256",
          "name": "_value",
          "type": "uint256"
        }
      ],
      "name": "approve",
      "outputs": [
        {
          "internalType": "bool",
          "name": "success",
          "type": "bool"
        }
      ],
      "stateMutability": "nonpayable",
      "type": "function"
    },
    {
      "inputs": [
        {
          "internalType": "address",
          "name": "",
          "type": "address"
        }
      ],
      "name": "balanceOf",
      "outputs": [
        {
          "internalType": "uint256",
          "name": "",
          "type": "uint256"
        }
      ],
      "stateMutability": "view",
      "type": "function"
    },
    {
      "inputs": [],
      "name": "decimals",
      "outputs": [
        {
          "internalType": "uint8",
          "name": "",
          "type": "uint8"
        }
      ],
      "stateMutability": "view",
      "type": "function"
    },
    {
      "inputs": [],
      "name": "name",
      "outputs": [
        {
          "internalType": "string",
          "name": "",
          "type": "string"
        }
      ],
      "stateMutability": "view",
      "type": "function"
    },
    {
      "inputs": [],
      "name": "symbol",
      "outputs": [
        {
          "internalType": "string",
          "name": "",
          "type": "string"
        }
      ],
      "stateMutability": "view",
      "type": "function"
    },
    {
      "inputs": [],
      "name": "totalSupply",
      "outputs": [
        {
          "internalType": "uint256",
          "name": "",
          "type": "uint256"
        }
      ],
      "stateMutability": "view",
      "type": "function"
    },
    {
      "inputs": [
        {
          "internalType": "address",
          "name": "_to",
          "type": "address"
        },
        {
          "internalType": "uint256",
          "name": "_value",
          "type": "uint256"
        }
      ],
      "name": "transfer",
      "outputs": [
        {
          "internalType": "bool",
          "name": "",
          "type": "bool"
        }
      ],
      "stateMutability": "nonpayable",
      "type": "function"
    },
    {
      "inputs": [
        {
          "internalType": "address",
          "name": "_from",
          "type": "address"
        },
        {
          "internalType": "address",
          "name": "_to",
          "type": "address"
        },
        {
          "internalType": "uint256",
          "name": "_value",
          "type": "uint256"
        }
      ],
      "name": "transferFrom",
      "outputs": [
        {
          "internalType": "bool",
          "name": "",
          "type": "bool"
        }
      ],
      "stateMutability": "nonpayable",
      "type": "function"
    }
  ],
  "bytecode": "0x60806040526040518060200160405280600081525060009081620000249190620003cd565b506040518060200160405280600081525060019081620000459190620003cd565b506000600260006101000a81548160ff021916908360ff1602179055506127106003553480156200007557600080fd5b5060405162001b7b38038062001b7b83398181016040528101906200009b919062000656565b8260009081620000ac9190620003cd565b508160019081620000be9190620003cd565b5080600260006101000a81548160ff021916908360ff160217905550600260009054906101000a900460ff16600a620000f8919062000873565b612710620001079190620008c4565b600460003373ffffffffffffffffffffffffffffffffffffffff1673ffffffffffffffffffffffffffffffffffffffff168152602001908152602001600020819055505050506200090f565b600081519050919050565b7f4e487b7100000000000000000000000000000000000000000000000000000000600052604160045260246000fd5b7f4e487b7100000000000000000000000000000000000000000000000000000000600052602260045260246000fd5b60006002820490506001821680620001d557607f821691505b602082108103620001eb57620001ea6200018d565b5b50919050565b60008190508160005260206000209050919050565b60006020601f8301049050919050565b600082821b905092915050565b600060088302620002557fffffffffffffffffffffffffffffffffffffffffffffffffffffffffffffffff8262000216565b62000261868362000216565b95508019841693508086168417925050509392505050565b6000819050919050565b6000819050919050565b6000620002ae620002a8620002a28462000279565b62000283565b62000279565b9050919050565b6000819050919050565b620002ca836200028d565b620002e2620002d982620002b5565b84845462000223565b825550505050565b600090565b620002f9620002ea565b62000306818484620002bf565b505050565b5b818110156200032e5762000322600082620002ef565b6001810190506200030c565b5050565b601f8211156200037d576200034781620001f1565b620003528462000206565b8101602085101562000362578190505b6200037a620003718562000206565b8301826200030b565b50505b505050565b600082821c905092915050565b6000620003a26000198460080262000382565b1980831691505092915050565b6000620003bd83836200038f565b9150826002028217905092915050565b620003d88262000153565b67ffffffffffffffff811115620003f457620003f36200015e565b5b620004008254620001bc565b6200040d82828562000332565b600060209050601f83116001811462000445576000841562000430578287015190505b6200043c8582620003af565b865550620004ac565b601f1984166200045586620001f1565b60005b828110156200047f5784890151825560018201915060208501945060208101905062000458565b868310156200049f57848901516200049b601f8916826200038f565b8355505b6001600288020188555050505b505050505050565b6000604051905090565b600080fd5b600080fd5b600080fd5b600080fd5b6000601f19601f8301169050919050565b620004ee82620004d2565b810181811067ffffffffffffffff8211171562000510576200050f6200015e565b5b80604052505050565b600062000525620004b4565b9050620005338282620004e3565b919050565b600067ffffffffffffffff8211156200055657620005556200015e565b5b6200056182620004d2565b9050602081019050919050565b60005b838110156200058e57808201518184015260208101905062000571565b60008484015250505050565b6000620005b1620005ab8462000538565b62000519565b905082815260208101848484011115620005d057620005cf620004cd565b5b620005dd8482856200056e565b509392505050565b600082601f830112620005fd57620005fc620004c8565b5b81516200060f8482602086016200059a565b91505092915050565b600060ff82169050919050565b620006308162000618565b81146200063c57600080fd5b50565b600081519050620006508162000625565b92915050565b600080600060608486031215620006725762000671620004be565b5b600084015167ffffffffffffffff811115620006935762000692620004c3565b5b620006a186828701620005e5565b935050602084015167ffffffffffffffff811115620006c557620006c4620004c3565b5b620006d386828701620005e5565b9250506040620006e6868287016200063f565b9150509250925092565b7f4e487b7100000000000000000000000000000000000000000000000000000000600052601160045260246000fd5b60008160011c9050919050565b6000808291508390505b60018511156200077e57808604811115620007565762000755620006f0565b5b6001851615620007665780820291505b808102905062000776856200071f565b945062000736565b94509492505050565b6000826200079957600190506200086c565b81620007a957600090506200086c565b8160018114620007c25760028114620007cd5762000803565b60019150506200086c565b60ff841115620007e257620007e1620006f0565b5b8360020a915084821115620007fc57620007fb620006f0565b5b506200086c565b5060208310610133831016604e8410600b84101617156200083d5782820a905083811115620008375762000836620006f0565b5b6200086c565b6200084c84848460016200072c565b92509050818404811115620008665762000865620006f0565b5b81810290505b9392505050565b6000620008808262000279565b91506200088d8362000618565b9250620008bc7fffffffffffffffffffffffffffffffffffffffffffffffffffffffffffffffff848462000787565b905092915050565b6000620008d18262000279565b9150620008de8362000279565b9250828202620008ee8162000279565b91508282048414831517620009085762000907620006f0565b5b5092915050565b61125c806200091f6000396000f3fe608060405234801561001057600080fd5b506004361061009e5760003560e01c8063313ce56711610066578063313ce5671461016f57806370a082311461018d57806395d89b41146101bd578063a9059cbb146101db578063dd62ed3e1461020b5761009e565b806306fdde03146100a3578063095ea7b3146100c157806318160ddd146100f15780631a46ec821461010f57806323b872dd1461013f575b600080fd5b6100ab61023b565b6040516100b89190610dd6565b60405180910390f35b6100db60048036038101906100d69190610e91565b6102c9565b6040516100e89190610eec565b60405180910390f35b6100f96104c0565b6040516101069190610f16565b60405180910390f35b61012960048036038101906101249190610f31565b6104c6565b6040516101369190610f16565b60405180910390f35b61015960048036038101906101549190610f71565b61054d565b6040516101669190610eec565b60405180910390f35b6101776107b2565b6040516101849190610fe0565b60405180910390f35b6101a760048036038101906101a29190610ffb565b6107c5565b6040516101b49190610f16565b60405180910390f35b6101c56107dd565b6040516101d29190610dd6565b60405180910390f35b6101f560048036038101906101f09190610e91565b61086b565b6040516102029190610eec565b60405180910390f35b61022560048036038101906102209190610f31565b6108bd565b6040516102329190610f16565b60405180910390f35b6000805461024890611057565b80601f016020809104026020016040519081016040528092919081815260200182805461027490611057565b80156102c15780601f10610296576101008083540402835291602001916102c1565b820191906000526020600020905b8154815290600101906020018083116102a457829003601f168201915b505050505081565b600082600073ffffffffffffffffffffffffffffffffffffffff168173ffffffffffffffffffffffffffffffffffffffff160361030557600080fd5b600083148061039057506000600560003373ffffffffffffffffffffffffffffffffffffffff1673ffffffffffffffffffffffffffffffffffffffff16815260200190815260200160002060008673ffffffffffffffffffffffffffffffffffffffff1673ffffffffffffffffffffffffffffffffffffffff16815260200190815260200160002054145b6103cf576040517f08c379a00000000000000000000000000000000000000000000000000000000081526004016103c6906110d4565b60405180910390fd5b82600560003373ffffffffffffffffffffffffffffffffffffffff1673ffffffffffffffffffffffffffffffffffffffff16815260200190815260200160002060008673ffffffffffffffffffffffffffffffffffffffff1673ffffffffffffffffffffffffffffffffffffffff168152602001908152602001600020819055508373ffffffffffffffffffffffffffffffffffffffff163373ffffffffffffffffffffffffffffffffffffffff167f8c5be1e5ebec7d5bd14f71427d1e84f3dd0314c0f7b2291e5b200ac8c7c3b925856040516104ad9190610f16565b60405180910390a3600191505092915050565b60035481565b6000600560008473ffffffffffffffffffffffffffffffffffffffff1673ffffffffffffffffffffffffffffffffffffffff16815260200190815260200160002060008373ffffffffffffffffffffffffffffffffffffffff1673ffffffffffffffffffffffffffffffffffffffff16815260200190815260200160002054905092915050565b600083600073ffffffffffffffffffffffffffffffffffffffff168173ffffffffffffffffffffffffffffffffffffffff160361058957600080fd5b83600073ffffffffffffffffffffffffffffffffffffffff168173ffffffffffffffffffffffffffffffffffffffff16036105c357600080fd5b600560008773ffffffffffffffffffffffffffffffffffffffff1673ffffffffffffffffffffffffffffffffffffffff16815260200190815260200160002060003373ffffffffffffffffffffffffffffffffffffffff1673ffffffffffffffffffffffffffffffffffffffff16815260200190815260200160002054841115610682576040517f08c379a000000000000000000000000000000000000000000000000000000000815260040161067990611140565b60405180910390fd5b610708600560008873ffffffffffffffffffffffffffffffffffffffff1673ffffffffffffffffffffffffffffffffffffffff16815260200190815260200160002060003373ffffffffffffffffffffffffffffffffffffffff1673ffffffffffffffffffffffffffffffffffffffff16815260200190815260200160002054856108e2565b600560008873ffffffffffffffffffffffffffffffffffffffff1673ffffffffffffffffffffffffffffffffffffffff16815260200190815260200160002060003373ffffffffffffffffffffffffffffffffffffffff1673ffffffffffffffffffffffffffffffffffffffff1681526020019081526020016000206000828254610793919061118f565b925050819055506107a5868686610909565b6001925050509392505050565b600260009054906101000a900460ff1681565b60046020528060005260406000206000915090505481565b600180546107ea90611057565b80601f016020809104026020016040519081016040528092919081815260200182805461081690611057565b80156108635780601f1061083857610100808354040283529160200191610863565b820191906000526020600020905b81548152906001019060200180831161084657829003601f168201915b505050505081565b600082600073ffffffffffffffffffffffffffffffffffffffff168173ffffffffffffffffffffffffffffffffffffffff16036108a757600080fd5b6108b2338585610909565b600191505092915050565b6005602052816000526040600020602052806000526040600020600091509150505481565b6000818310156108f5576108f46111c3565b5b8183610901919061118f565b905092915050565b82600073ffffffffffffffffffffffffffffffffffffffff168173ffffffffffffffffffffffffffffffffffffffff160361094357600080fd5b82600073ffffffffffffffffffffffffffffffffffffffff168173ffffffffffffffffffffffffffffffffffffffff160361097d57600080fd5b82600460008773ffffffffffffffffffffffffffffffffffffffff1673ffffffffffffffffffffffffffffffffffffffff1681526020019081526020016000205410156109c957600080fd5b600460008573ffffffffffffffffffffffffffffffffffffffff1673ffffffffffffffffffffffffffffffffffffffff1681526020019081526020016000205483600460008773ffffffffffffffffffffffffffffffffffffffff1673ffffffffffffffffffffffffffffffffffffffff16815260200190815260200160002054610a5491906111f2565b11610a5e57600080fd5b6000610ae8600460008873ffffffffffffffffffffffffffffffffffffffff1673ffffffffffffffffffffffffffffffffffffffff16815260200190815260200160002054600460008873ffffffffffffffffffffffffffffffffffffffff1673ffffffffffffffffffffffffffffffffffffffff16815260200190815260200160002054610d1a565b9050610b33600460008873ffffffffffffffffffffffffffffffffffffffff1673ffffffffffffffffffffffffffffffffffffffff16815260200190815260200160002054856108e2565b600460008873ffffffffffffffffffffffffffffffffffffffff1673ffffffffffffffffffffffffffffffffffffffff16815260200190815260200160002081905550610bbf600460008773ffffffffffffffffffffffffffffffffffffffff1673ffffffffffffffffffffffffffffffffffffffff1681526020019081526020016000205485610d1a565b600460008773ffffffffffffffffffffffffffffffffffffffff1673ffffffffffffffffffffffffffffffffffffffff1681526020019081526020016000206000828254610c0d91906111f2565b925050819055508473ffffffffffffffffffffffffffffffffffffffff168673ffffffffffffffffffffffffffffffffffffffff167fddf252ad1be2c89b69c2b068fc378daa952ba7f163c4a11628f55a4df523b3ef86604051610c719190610f16565b60405180910390a380600460008773ffffffffffffffffffffffffffffffffffffffff1673ffffffffffffffffffffffffffffffffffffffff16815260200190815260200160002054600460008973ffffffffffffffffffffffffffffffffffffffff1673ffffffffffffffffffffffffffffffffffffffff16815260200190815260200160002054610d0491906111f2565b14610d1257610d116111c3565b5b505050505050565b6000808284610d2991906111f2565b905083811015610d3c57610d3b6111c3565b5b8091505092915050565b600081519050919050565b600082825260208201905092915050565b60005b83811015610d80578082015181840152602081019050610d65565b60008484015250505050565b6000601f19601f8301169050919050565b6000610da882610d46565b610db28185610d51565b9350610dc2818560208601610d62565b610dcb81610d8c565b840191505092915050565b60006020820190508181036000830152610df08184610d9d565b905092915050565b600080fd5b600073ffffffffffffffffffffffffffffffffffffffff82169050919050565b6000610e2882610dfd565b9050919050565b610e3881610e1d565b8114610e4357600080fd5b50565b600081359050610e5581610e2f565b92915050565b6000819050919050565b610e6e81610e5b565b8114610e7957600080fd5b50565b600081359050610e8b81610e65565b92915050565b60008060408385031215610ea857610ea7610df8565b5b6000610eb685828601610e46565b9250506020610ec785828601610e7c565b9150509250929050565b60008115159050919050565b610ee681610ed1565b82525050565b6000602082019050610f016000830184610edd565b92915050565b610f1081610e5b565b82525050565b6000602082019050610f2b6000830184610f07565b92915050565b60008060408385031215610f4857610f47610df8565b5b6000610f5685828601610e46565b9250506020610f6785828601610e46565b9150509250929050565b600080600060608486031215610f8a57610f89610df8565b5b6000610f9886828701610e46565b9350506020610fa986828701610e46565b9250506040610fba86828701610e7c565b9150509250925092565b600060ff82169050919050565b610fda81610fc4565b82525050565b6000602082019050610ff56000830184610fd1565b92915050565b60006020828403121561101157611010610df8565b5b600061101f84828501610e46565b91505092915050565b7f4e487b7100000000000000000000000000000000000000000000000000000000600052602260045260246000fd5b6000600282049050600182168061106f57607f821691505b60208210810361108257611081611028565b5b50919050565b7f6661696c2076616c696400000000000000000000000000000000000000000000600082015250565b60006110be600a83610d51565b91506110c982611088565b602082019050919050565b600060208201905081810360008301526110ed816110b1565b9050919050565b7f2d696e76616c69642076616c7565000000000000000000000000000000000000600082015250565b600061112a600e83610d51565b9150611135826110f4565b602082019050919050565b600060208201905081810360008301526111598161111d565b9050919050565b7f4e487b7100000000000000000000000000000000000000000000000000000000600052601160045260246000fd5b600061119a82610e5b565b91506111a583610e5b565b92508282039050818111156111bd576111bc611160565b5b92915050565b7f4e487b7100000000000000000000000000000000000000000000000000000000600052600160045260246000fd5b60006111fd82610e5b565b915061120883610e5b565b92508282019050808211156112205761121f611160565b5b9291505056fea2646970667358221220a41d98ac07601ae9bac69401f4fd615dd8ef5fb8291da52a1a41f6259ce8457c64736f6c63430008180033",
  "linkReferences": {},
  "deployedLinkReferences": {}
}